:100000000C9430020C9474020C9474020C947402DC
:100010000C9474020C9474020C9474020C94740288
:100020000C9474020C9474020C94F4080C94C60999
:100030000C941E190C9474020C9474020C947402A7
:100040000C9474020C9440040C9474020C9474028A
:100050000C9474020C9485190C9474020C94740220
:100060000C9474020C9474020C9474020C94740238
:100070000C9474020C9474020C9474020C94740228
:100080000C9474020C9474020C9474020C94740218
:100090000C9474020C9474020C9474020C94740208
:1000A0000C9474020C9474020C9474022B0A4D0A82
:1000B000380B4D0A380B8F0AB20A380B070B1A0B94
:1000C000020E020E300E300E850EB20E5411541177
:1000D000CA0E5411C10FC10F7D109110FB104211B7
:1000E00000F0018AF1A100D100D200D004861B8269
:1000F000C01E1F20212223242526272D2E2A2B1423
:100100001A0815171C180C12132F30313904160752
:10011000090A0B0D0E0F33340028E1001D1B0619D0
:1001200005111036373800E5C1E3E200002C00006D
:100130000000E6E7C2E4353A3B3C3D3E3F404142E9
:100140004344454C010152010101B20149014647B6
:1001500048010150514F01015051524F4A4B00018B
:1001600001000165C3C4C5AAA9A84D4E0001010143
:10017000010000C6000000000101010101010101B0
:100180000101015F606101560101010101010101ED
:10019000015C5D5E0158010101010101010101598C
:1001A0005A5B5755000101000101010101016285FF
:1001B000635400010101010000C7000000000101BB
:1001C000010100000000010101020203040505060F
:1001D00007090A0B0C0E0F1112141517191B1D1FFE
:1001E000212325282A2C2F313436393B3E414346E2
:1001F000494C4F5255585A5D6164676A6D70737609
:10020000797C7F8386898C8F9295989B9EA2A5A7E7
:10021000AAADB0B3B6B9BCBEC1C4C6C9CBCED0D3EB
:10022000D5D7DADCDEE0E2E4E6E8EAEBEDEEF0F189
:10023000F3F4F5F6F8F9FAFAFBFCFDFDFEFEFEFF1D
:10024000FFFFFFFFFFFFFEFEFEFDFDFCFBFAFAF9DC
:10025000F8F6F5F4F3F1F0EEEDEBEAE8E6E4E2E0CF
:10026000DEDCDAD7D5D3D0CECBC9C6C4C1BEBCB9CB
:10027000B6B3B0ADAAA7A5A29E9B9895928F8C8984
:100280008683807C797673706D6A6764615D5A5885
:1002900055524F4C494643413E3B393634312F2C61
:1002A0002A282523211F1D1B1917151412110F0EA3
:1002B0000C0B0A09070605050403020201010100EF
:1002C00000000A0347004800360030000000120317
:1002D0006700650065006B006800610063006B00EB
:1002E00000000403090409026D00040100A03209A2
:1002F0000400000103010100092111010001223F56
:10030000000705810308000A090401000103010236
:1003100000092111010001224D0007058203080098
:100320000A09040200010300000009211101000173
:100330002236000705830308000A090403000103AD
:100340000000000921110100012239000705840382
:100350001000011201100100000008EDFE606001B4
:10036000000102000105010906A101050719E029A4
:10037000E715002501950875018102050819012975
:100380000595057501910295017503910105071900
:1003900000297715002501957875018102C00501B6
:1003A0000980A101850216010026B7001A01002A62
:1003B000B700751095018100C0050C0901A10185E8
:1003C00003160100269C021A01002A9C0275109552
:1003D000018100C005010902A1010901A10005096F
:1003E0001901290515002501950575018102950161
:1003F000750381010501093009311581257F9502B9
:100400007508810609381581257F950175088106D3
:10041000050C0A38021581257F950175088106C0F3
:10042000C005010906A101050719E029E715002506
:10043000019508750181029501750881010508196A
:100440000129059505750191029501750391010535
:1004500007190029FF150025FF950675088100C0C2
:1004600011241FBECFEFDAE0DEBFCDBF04B603FE1E
:1004700024C08091E6019091E701A091E801B0913C
:10048000E9018730904BA740B04BB9F41092E601D8
:100490001092E7011092E8011092E90114BE84B7AE
:1004A000877F84BF88E10FB6F89480936000109234
:1004B00060000FBEE0E0F8E3099511E0A0E0B1E0D4
:1004C000EEE7F3E402C005900D92A633B107D9F729
:1004D00011E0A6E3B1E001C01D92A63EB107E1F72D
:1004E0000E943A060C94BD210C940000CF93DF9338
:1004F000EC0161111FC00E94571782728093360170
:100500009A81992351F0882319F085E390E002C085
:1005100089E290E00E94DE1609C0882319F085E385
:1005200090E002C089E290E00E941A17DF91CF911B
:100530000C949317DF91CF9108959EE0799FF0017D
:10054000112496E4899FE00DF11D1124E60FF11DA1
:10055000E051FF4F84910895E82FF0E0EE0FFF1F68
:10056000E05AF0408591949108958AB18C7D8AB9C2
:100570008BB18C7D8BB980B38F7380BB81B38F734C
:1005800081BB089580E885BF85BF0E94B50280B316
:100590008C7F80BB81B3836081BB6E98769A8AB171
:1005A0008F728AB98BB1806D8BB987B18F7387B920
:1005B00088B1806C88B984B1847484B985B18B6B3F
:1005C00085B9E1E4F1E0A7E3B1E0119211921D9247
:1005D0001D9281E0EB34F807C1F70895FF920F9365
:1005E0001F93CF93DF93C7E3D1E010E001E0A5E0D4
:1005F000FA2E123071F018F4113041F004C01330AB
:1006000059F0143061F0509A58980BC0519A59988B
:1006100008C0869A8E9805C0879A8F9802C0559A0E
:100620005D9880EA8A95F1F72FB12170202730E09C
:10063000799B03C080E090E002C082E090E0282B2C
:10064000392B669B03C080E090E002C084E090E01C
:10065000282B392B86B1992787FD90958095909509
:100660008827990F881F9927F3E0880F991FFA951B
:10067000E1F7282B392B369B03C080E090E002C0C5
:1006800080E190E0282B392B83B1992787FD909545
:10069000809590958827990F881F992775E0880F76
:1006A000991F7A95E1F7282B392B4C9B03C060E00A
:1006B00070E002C060E470E0262B372B199B03C06A
:1006C00060E070E002C060E870E0262B372B189BDA
:1006D00003C040E050E002C040E051E0242B352B45
:1006E0001D9B03C080E090E002C080E092E0282BD8
:1006F000392B1C9B03C080E090E002C080E094E0B6
:10070000282B392B89B1992787FD90958095909555
:100710008827990F881F9927982F8827990F990F55
:10072000990F282B392B4E9B03C080E090E002C02C
:1007300080E090E1282B392B1B9B03C080E090E0E8
:1007400002C080E090E2282B392B888199818217A2
:10075000930721F039832883F09200010E94B502AB
:100760001F5F2296153009F044CF80910001882345
:10077000C1F0815080930001882339F08FE99FE018
:100780000197F1F700C000000CC0A1E4B1E0E7E37D
:10079000F1E0819191918D939D9391E0E134F9077E
:1007A000C1F781E0DF91CF911F910F91FF900895E4
:1007B000E82FF0E0EE0FFF1FEF5BFE4F808191818D
:1007C0000895089581FF02C0229A01C022982A98B4
:1007D000089580914E01811116C081E080934E01F1
:1007E0008091810088608093810080918100816088
:1007F000809381008FB7F89493E09093890090EDF7
:10080000909388008FBF08952E9A08952E9808958A
:10081000EFE6F0E08081826080830895EFE6F0E00B
:1008200080818D7F8083089580934D01269A88234F
:1008300021F00E94E9030C9408040E940E040C9419
:10084000060480914D01813011F485E516C0823097
:1008500089F480914B018F5F80934B01E82FF0E08A
:10086000EE53FE4FE491E0934C018F3F41F4109220
:100870004B010895833019F48FEF80934C01089554
:100880001F920F920FB60F9211242F933F934F9305
:100890005F936F937F938F939F93AF93BF93EF93E8
:1008A000FF9380914F018F5F80934F0190910201E0
:1008B000891306C010924F010E9404040E94210473
:1008C00090914F0180914C01981302C00E94060440
:1008D000FF91EF91BF91AF919F918F917F916F9118
:1008E0005F914F913F912F910F900FBE0F901F90EE
:1008F0001895809161010895CF93DF9300D01F92E6
:10090000CDB7DEB72091DC01243019F523E029832F
:100910009B838A832093E9008FEF9091E8008150B8
:1009200095FD06C095ED9A95F1F700008111F5CF80
:100930008091E80085FF0DC040E050E063E070E08A
:10094000CE0101960E94E7068091E8008E778093A1
:10095000E8000F900F900F90DF91CF910895CF9303
:10096000DF9300D01F92CDB7DEB72091DC01243099
:1009700021F522E029839B838A8383E08093E90029
:100980008FEF9091E800815095FD06C095ED9A9506
:10099000F1F700008111F5CF8091E80085FF0DC0CF
:1009A00040E050E063E070E0CE0101960E94E7066F
:1009B0008091E8008E778093E8000F900F900F9061
:1009C000DF91CF9108952091DC012430F1F422E0F1
:1009D0002093E9002FEF3091E800215035FD06C04B
:1009E00035ED3A95F1F700002111F5CF2091E8009F
:1009F00025FF0BC040E050E065E070E00E94E70694
:100A00008091E8008E778093E8000895CF93DF937C
:100A1000EC018091DC01843009F042C090910E011C
:100A20009923B9F08093E9008FEF9091E80081500D
:100A300095FD06C095E19A95F1F700008111F5CF7B
:100A40008091E80085FF2CC040E050E060E170E05C
:100A500017C081E08093E9008FEF9091E80081500A
:100A600095FD06C095ED9A95F1F700008111F5CF3F
:100A70008091E80085FF14C040E050E068E070E03D
:100A8000CE010E94E7068091E8008E778093E8000F
:100A900080E1FE01A1E5B1E001900D928A95E1F7B8
:100AA000DF91CF9108958091DB01811109C00E94EF
:100AB00079080E94D6088091E20084608093E20069
:100AC00008951092DB010895089580E090E00E945F
:100AD00014040C9404190C941A1942E061EC81E09E
:100AE0000E94F30742E061EC82E00E94F30742E0DB
:100AF00061EC83E00E94F30742E161EC84E00C9436
:100B0000F3078091DE01833009F455C030F4813061
:100B100071F0823009F495C008958A3009F481C0DB
:100B20008B3009F460C0893009F0A3C020C08091E7
:100B3000DD01813A09F09DC08091E800877F8093B4
:100B4000E8008091E1019091E201892B21F060E0C1
:100B500080E090E003C060E181E591E070E00E94F8
:100B600030078091E8008B778093E80008958091AA
:100B7000DD01813209F07DC08091E1019091E201B7
:100B8000009719F0039709F074C08091E800877FFF
:100B90008093E8008091E80082FD05C08091DC012F
:100BA0008111F8CF66C08091F1008093610180913E
:100BB000E8008B775AC08091DD01813A09F059C075
:100BC0008091E1019091E201892B09F052C080915E
:100BD000E800877F8093E8008091E80080FFFCCFE9
:100BE00080910D013DC08091DD01813209F041C04D
:100BF0008091E1019091E201892BD9F58091E80083
:100C0000877F8093E8000E9428089091DF0181E0AF
:100C1000911101C080E080930D0180930E010C942E
:100C200075118091DD01813221F58091E800877F87
:100C30008093E8000E9428088091E0018093500191
:100C400008958091DD01813AA1F48091E800877FC9
:100C50008093E8008091E80080FFFCCF80915001F4
:100C60008093F1008091E8008E778093E8000C94E7
:100C70002808089584B7877F84BF88E10FB6F89469
:100C800080936000109260000FBE90E080E80FB685
:100C9000F89480936100909361000FBE0E94A50BB1
:100CA0000E9479080E94D6088091E20084608093B7
:100CB000E20078948091DC018430E1F70E94A70B78
:100CC00083E091E00E94510B8091DC01853069F452
:100CD0000E94DD188091DA018823B1F30E94051982
:100CE000882391F30E94D106EFCF0E94AF0BECCF87
:100CF000292F332723303105A9F06CF42130310539
:100D000009F442C02230310509F043C08DE690E07D
:100D100026EE32E042C021323105C9F022323105DF
:100D200019F137C099278130910541F08230910542
:100D300041F0892B71F5E2EEF2E005C0EEECF2E055
:100D400002C0E2ECF2E0849190E09F0126C06430A2
:100D500000F5E62FF0E0EE0FFF1FED5DFE4F208166
:100D6000318189E090E019C0643098F4E62FF0E01A
:100D7000DF01AA0FBB1FA55EBE4F2D913C91E95E1E
:100D8000FE4F808190E009C082E190E023E533E0EE
:100D900004C080E090E020E030E0FA01318320835D
:100DA000089580E189BD82E189BD09B400FEFDCFCF
:100DB0008091D8008F7D8093D8008091E000826080
:100DC0008093E0008091E00081FDFCCF0895CF92F8
:100DD000DF92EF92FF920F931F93CF93DF937C01EB
:100DE0008B01EA010E944908811131C0209731F03E
:100DF00088819981081B190BE80EF91EC12CD12C92
:100E00000115110519F18091E80085FD14C080914C
:100E1000E8008E778093E800209741F088819981DF
:100E20008C0D9D1D9983888385E011C00E9449081F
:100E3000882331F30CC0F70181917F018093F10089
:100E400001501109FFEFCF1ADF0ADACF80E0DF91FE
:100E5000CF911F910F91FF90EF90DF90CF90089569
:100E60002091E3013091E4012617370748F061151E
:100E7000710539F42091E8002E772093E80001C035
:100E8000B901FC0120E061157105B9F18091DC0127
:100E9000882309F440C0853009F43FC08091E80000
:100EA00083FD3DC08091E80082FF06C08091E8008C
:100EB00082FF26C080E008958091E80080FFE3CFA4
:100EC0002091F3008091F20090E0922B6115710562
:100ED00051F08830910538F421912093F100615050
:100EE00071090196F3CF21E0089709F020E0809185
:100EF000E8008E778093E800C6CF2111C7CFD6CF08
:100F00008091DC01882339F0853039F08091E80048
:100F100083FFCCCF04C082E0089583E0089581E090
:100F200008952091E3013091E4012617370748F036
:100F30006115710539F42091E8002E772093E800BF
:100F400001C0B901FC0120E061157105C1F180917A
:100F5000DC01882309F441C0853009F440C0809148
:100F6000E80083FD3EC08091E80082FF06C08091CA
:100F7000E80082FF27C080E008958091E80080FFAC
:100F8000E3CF2091F3008091F20090E0922B611565
:100F9000710559F08830910540F424912093F100B7
:100FA0003196615071090196F2CF21E0089709F05E
:100FB00020E08091E8008E778093E800C5CF211172
:100FC000C6CFD5CF8091DC01882339F0853039F048
:100FD0008091E80083FFCBCF04C082E0089583E0D6
:100FE000089581E00895982F973058F59093E9007F
:100FF000981739F07091EC002091ED005091F000BD
:1010000003C0242F762F50E021FF19C03091EB0050
:101010003E7F3093EB003091ED003D7F3093ED004B
:101020003091EB0031603093EB007093EC00209333
:10103000ED005093F0002091EE0027FF07C09F5F66
:10104000D3CF8F708093E90081E0089580E0089508
:101050008091DD0187FD05C08091E80080FF0EC012
:1010600012C08091E80082FD05C08091DC018111F1
:10107000F8CF08958091E8008B7708C08091DC015B
:101080008111EACF08958091E8008E778093E8007F
:1010900008958091E4009091E50045E62091EC00F0
:1010A00020FF21C02091E80020FD21C02091DC011B
:1010B000222389F0253089F02091EB0025FD0FC017
:1010C0002091E4003091E5002817390739F34150A9
:1010D00041F0C901E3CF82E0089583E0089581E003
:1010E000089584E008952091E80022FFDFCF80E09A
:1010F00008950E94E7080E94EF08E0EEF0E080818A
:1011000081608083E8EDF0E080818F77808319BC77
:10111000A7EDB0E08C918E7F8C9380818F7E808351
:101120001092DB0108950F931F93CF93DF930E94DA
:10113000E7080E94EF08C8EDD0E088818F778883A8
:1011400088818068888388818F7D888319BC10920C
:10115000DC011092D8011092DA011092D90100EE50
:1011600010E0F80180818B7F808388818160888393
:1011700042E060E080E00E94F307E1EEF0E0808171
:101180008E7F8083E2EEF0E08081816080838081C9
:1011900088608083F80180818E7F80838881806170
:1011A0008883DF91CF911F910F910895E8EDF0E0D2
:1011B00080818F7E8083E7EDF0E080818160808395
:1011C00084E082BF81E08093DB010C949308E8ED1A
:1011D000F0E080818E7F80831092E200089510926B
:1011E000DA001092E10008951F920F920FB60F924D
:1011F00011242F933F934F935F936F937F938F931C
:101200009F93AF93BF93EF93FF938091E10082FF91
:101210000BC08091E20082FF07C08091E1008B7FCC
:101220008093E1000E94500B8091DA0080FF1FC084
:101230008091D80080FF1BC08091DA008E7F809360
:10124000DA008091D90080FF0DC080E189BD82E184
:1012500089BD09B400FEFDCF81E08093DC010E94CE
:10126000530505C019BC1092DC010E9461058091F4
:10127000E10080FF19C08091E20080FF15C08091DD
:10128000E2008E7F8093E2008091E2008061809393
:10129000E2008091D80080628093D80019BC85E07C
:1012A0008093DC010E9465058091E10084FF30C0DD
:1012B0008091E20084FF2CC080E189BD82E189BD7C
:1012C00009B400FEFDCF8091D8008F7D8093D800B7
:1012D0008091E1008F7E8093E1008091E2008F7E1B
:1012E0008093E2008091E20081608093E20080912F
:1012F000D801882311F084E007C08091E30087FFC4
:1013000002C083E001C081E08093DC010E946B0594
:101310008091E10083FF29C08091E20083FF25C016
:101320008091E100877F8093E10082E08093DC017F
:101330001092D8018091E1008E7F8093E10080912E
:10134000E2008E7F8093E2008091E20080618093D2
:10135000E20042E060E080E00E94F3078091F0004C
:1013600088608093F0000E946405FF91EF91BF9127
:10137000AF919F918F917F916F915F914F913F912D
:101380002F910F900FBE0F901F9018951F920F92E4
:101390000FB60F9211242F933F934F935F936F9348
:1013A0007F938F939F93AF93BF93CF93EF93FF93CD
:1013B000C091E900CF708091EC001092E90080911B
:1013C000F000877F8093F00078940E94020A1092C8
:1013D000E9008091F00088608093F000C093E900FC
:1013E000FF91EF91CF91BF91AF919F918F917F919D
:1013F0006F915F914F913F912F910F900FBE0F9082
:101400001F9018951F93CF93DF93CDB7DEB7AA97A0
:101410000FB6F894DEBF0FBECDBFEDEDF1E08091C9
:10142000F100819321E0E53EF207C9F70E948105B2
:101430008091E80083FF1CC12091DD013091DE0125
:10144000832F90E08A30910508F012C1FC01EA5A1E
:10145000FF4F0C947221203881F0223809F008C126
:101460008091E1018F708093E9008091EB0085FB12
:10147000882780F91092E90006C08091D9019091E7
:10148000DA01911182609091E800977F9093E800D3
:101490008093F1001092F100C5C0822F8D7F09F07A
:1014A000E7C0222319F0223061F0E2C08091DF0111
:1014B000813009F0DDC0333009F080E08093DA013B
:1014C00028C08091DF01811124C02091E1012F709B
:1014D00009F4CEC02093E9008091EB0080FF19C091
:1014E0008091EB00333011F4806211C080618093F1
:1014F000EB0081E090E0022E01C0880F0A94EAF729
:101500008093EA001092EA008091EB00886080935B
:10151000EB001092E9008091E800877F86C02111DE
:10152000A7C01091DF011F778091E3008078812BA5
:101530008093E3008091E800877F8093E8000E9419
:1015400028088091E80080FFFCCF8091E30080684C
:101550008093E300112311F083E001C082E08093C7
:10156000DC0186C02058223008F082C08091DF0163
:101570009091E0018C3D23E0920779F583E08A8326
:101580008AE289834FB7F894DE01139620E03EE0AB
:1015900051E2E32FF0E050935700E49120FF03C0A5
:1015A000E295EF703F5FEF708E2F90E0EA3010F021
:1015B000C79601C0C0968D939D932F5F243149F744
:1015C0004FBF8091E800877F8093E8006AE270E077
:1015D000CE0101960E94300714C0AE014F5F5F4FED
:1015E0006091E1010E947806009709F441C02091C2
:1015F000E800277F2093E800BC0189819A810E943E
:1016000091078091E8008B778093E80031C0203803
:1016100079F58091E800877F8093E8008091D80178
:101620008093F1008091E8008E778093E8000E941B
:1016300028081EC021111CC09091DF019230C0F417
:101640008091E800877F8093E8009093D8010E9402
:1016500028088091D801811104C08091E30087FFA0
:1016600002C084E001C081E08093DC010E946D052E
:101670008091E80083FF0AC08091E800877F809313
:10168000E8008091EB0080628093EB00AA960FB691
:10169000F894DEBF0FBECDBFDF91CF911F910895AB
:1016A000089590936701809366010895E091660123
:1016B000F0916701309721F00190F081E02D0994BD
:1016C00080E00895E0916601F0916701309721F084
:1016D0000280F381E02D09940895E0916601F09174
:1016E0006701309721F00480F581E02D0994089579
:1016F00020916401309165018217930771F09093F6
:10170000650180936401E0916601F0916701309773
:1017100021F00680F781E02D09940895209162015F
:10172000309163018217930771F090936301809366
:101730006201E0916601F0916701309721F0008429
:10174000F185E02D0994089508950C94A40B0E944E
:1017500047190E94C2020E94141A0C94A41F5F929F
:101760006F927F928F929F92AF92BF92CF92DF92B1
:10177000EF92FF920F931F93CF93DF93CDB7DEB716
:101780002A970FB6F894DEBF0FBECDBF0E94EE02BF
:1017900099E6C92E91E0D92E00E010E0AA24A39486
:1017A000B12C502E802F0E94D8033C01F601E1900D
:1017B000F1906F01E826F926E114F104B1F40F5F0E
:1017C0001F4F0530110569F78FEF89838A831B82CC
:1017D0000E9450198160782F9D838C8349815A81A2
:1017E0006B818D810E94680C3AC08091C60181FD99
:1017F0000E94E10320E030E04501022E02C0880C87
:10180000991C0A94E2F7C4018E219F21892B09F1CA
:101810002E835F826820792081E0672809F480E0C8
:1018200088870E9450198160782F9A8789874E8116
:101830005F8168858A850E94680CF801EE0FFF1FA2
:10184000E759FE4F80819181882599259183808376
:1018500006C02F5F3F4F2E30310571F6B0CF0E948A
:10186000E01C109168010E94560B1817D9F00E94D5
:10187000560B809368012A960FB6F894DEBF0FBE10
:10188000CDBFDF91CF911F910F91FF90EF90DF902F
:10189000CF90BF90AF909F908F907F906F905F9010
:1018A0000C94E2032A960FB6F894DEBF0FBECDBFAC
:1018B000DF91CF911F910F91FF90EF90DF90CF902C
:1018C000BF90AF909F908F907F906F905F900895A2
:1018D000CF93DF93CDB7DEB72B970FB6F894DEBF6B
:1018E0000FBECDBF4F83588769877A878B87DE010C
:1018F000119686E0FD0111928A95E9F785E0FE01D7
:10190000379601900D928A95E1F749815A816B8152
:101910007C818D819E810E9441142B960FB6F89494
:10192000DEBF0FBECDBFDF91CF910895CF93C82FFB
:10193000882309F4C1C0823859F40E94560B81FDF6
:10194000BBC089E30E94DE160E94931789E30CC096
:10195000833879F40E94560B80FDAEC083E50E9467
:10196000DE160E94931783E50E941A17CF910C94FC
:101970009317843859F40E94560B82FD9DC087E46A
:101980000E94DE160E94931787E4EECF8CEF8C0F37
:10199000813A48F48C2F0E940F1F81118DC08C2F2B
:1019A0000E94DE16E3CF80E28C0F883048F4C770C7
:1019B00081E001C0880FCA95EAF70E945A17D6CF76
:1019C0008BE58C0F833078F4C53A29F0C63A31F4B0
:1019D00082E890E005C081E890E002C083E890E0F2
:1019E000CF910C94780B88E58C0F833108F064C09C
:1019F000C83A39F1C93A41F1CA3A49F1CB3A51F101
:101A0000CC3A59F1CD3A61F1C03B69F1CE3A71F16E
:101A1000CF3A79F1C13B81F1C23B89F1C33B91F1EE
:101A2000C43B99F1C53BA1F1C63BA9F1C73BB1F15C
:101A3000C83BB9F1C93BC1F1CA3BC9F58AE292E0A2
:101A400038C082EE90E035C089EE90E032C08AEE78
:101A500090E02FC085EB90E02CC086EB90E029C091
:101A600087EB90E026C08CEC90E023C08DEC90E0FA
:101A700020C083E891E01DC08AE891E01AC082E9A5
:101A800091E017C084E991E014C081E292E011C0B6
:101A900083E292E00EC084E292E00BC085E292E025
:101AA00008C086E292E005C087E292E002C080E0D2
:101AB00090E0CF910C948E0BCF910895882309F478
:101AC0004BC0823859F40E94560B81FF45C089E310
:101AD0000E94DE160E94931789E30CC0833871F4CC
:101AE0000E94560B80FF38C083E50E94DE160E94DC
:101AF000931783E50E941A170C949317843859F4AE
:101B00000E94560B82FF28C087E40E94DE160E94C6
:101B1000931787E4EFCF9CEF980F913A58F390E238
:101B2000980F983050F4877091E001C0990F8A9512
:101B3000EAF7892F0E946017DFCF9BE5980F93305B
:101B400020F480E090E00C94780B885A833120F4E4
:101B500080E090E00C948E0B0895882321F00E9481
:101B60005A170C9493170895882321F00E94601748
:101B70000C9493170895CF92DF92EF92FF920F93F8
:101B80001F93CF93DF93CDB7DEB728970FB6F894A6
:101B9000DEBF0FBECDBF8C0185E0F801DE011196DE
:101BA00001900D928A95E1F7F80140813181F28030
:101BB000258122952F7083819481892B31F03F3FBD
:101BC00031F481E04F3F19F403C081E001C080E0AF
:101BD00080FD6AC349833A8389819A812F830E9459
:101BE0009C169E8388870E949B160E946E154E81CC
:101BF000E42FE295EF70F0E0E05AFF4F2F81688507
:101C00000C947221842F807F142F1F70882311F071
:101C10001295107FFF2059F0112309F449C2812F3A
:101C200068870E946A170E949317688541C2862FB1
:101C30000E945E0D112309F437C3812F0E94701793
:101C400028960FB6F894DEBF0FBECDBFDF91CF91BF
:101C50001F910F91FF90EF90DF90CF900C9493170E
:101C6000342F307F842F8F70303211F08295807F37
:101C7000662319F0613009F12AC0FF20A1F0222368
:101C800081F1213071F528960FB6F894DEBF0FBEB2
:101C9000CDBFDF91CF911F910F91FF90EF90DF901B
:101CA000CF900C947A17222319F0213009F4FCC24A
:101CB0008E830E947D178E817FC1FF2021F0263008
:101CC00008F0F2C20EC0253008F0EEC275C1FF2048
:101CD000C1F0222331F0F801958190FFE9C19F7096
:101CE000958328960FB6F894DEBF0FBECDBFDF9167
:101CF000CF911F910F91FF90EF90DF90CF900C94B8
:101D0000AD0D222309F458C1E7C1242F269526954D
:101D1000237030E02115310521F02130310551F0DB
:101D2000C3C2FF2021F0862F942F93708DC280E0D4
:101D300090E08AC2FF2021F0862F942F937002C07A
:101D400080E090E028960FB6F894DEBF0FBECDBFBE
:101D5000DF91CF911F910F91FF90EF90DF90CF9087
:101D60000C948E0B862FFF2019F00E94E81B02C0F6
:101D70000E94501C28960FB6F894DEBF0FBECDBF50
:101D8000DF91CF911F910F91FF90EF90DF90CF9057
:101D90000C94D51C842F837009F076C0F11084C296
:101DA000262F229526952770220F220F862F8F70BF
:101DB000C82ED12CE12CF12C022E04C0CC0CDD1C41
:101DC000EE1CFF1C0A94D2F764FF10C06FE070E0B5
:101DD00080E090E004C0660F771F881F991F2A9546
:101DE000D2F7609570958095909503C060E070E0A3
:101DF000CB01242F269526952370422F50E04230A8
:101E00005105D1F04330510559F16C297D298E29B6
:101E10009F294130510541F128960FB6F894DEBF55
:101E20000FBECDBFDF91CF911F910F91FF90EF902B
:101E3000DF90CF900C9493156C297D298E299F29D2
:101E400028960FB6F894DEBF0FBECDBFDF91CF91BD
:101E50001F910F91FF90EF90DF90CF900C94AD15F4
:101E60000E949315C701B60128960FB6F894DEBFFD
:101E70000FBECDBFDF91CF911F910F91FF90EF90DB
:101E8000DF90CF900C947915FF2019F0842F81708A
:101E900001C08695882309F407C2262F229526952E
:101EA0002770220F220F862F8F70C82ED12CE12C85
:101EB000F12C022E04C0CC0CDD1CEE1CFF1C0A947D
:101EC000D2F764FF10C06FE070E080E090E004C0E3
:101ED000660F771F881F991F2A95D2F76095709516
:101EE0008095909503C060E070E0CB01242F26958B
:101EF00026952370422F50E042305105D1F04330F7
:101F0000510559F16C297D298E299F2941305105B0
:101F100041F128960FB6F894DEBF0FBECDBFDF911A
:101F2000CF911F910F91FF90EF90DF90CF900C9485
:101F300067166C297D298E299F2928960FB6F8945B
:101F4000DEBF0FBECDBFDF91CF911F910F91FF90EC
:101F5000EF90DF90CF900C9481160E946716C70116
:101F6000B60128960FB6F894DEBF0FBECDBFDF9145
:101F7000CF911F910F91FF90EF90DF90CF900C9435
:101F80004D16603F49F118F4603E48F48CC0623F42
:101F900009F451C0E0F1633F09F461C084C0162F19
:101FA0001F70842F8F71FF2021F00E94E615812F72
:101FB00098CE0E940716812F28960FB6F894DEBFA0
:101FC0000FBECDBFDF91CF911F910F91FF90EF908A
:101FD000DF90CF900C94B40DFF20A9F0253008F0CD
:101FE00063C1842F8F7128960FB6F894DEBF0FBEA1
:101FF000CDBFDF91CF911F910F91FF90EF90DF90B8
:10200000CF900C942C16263008F04EC1EACFFF205A
:10201000A1F0842F8F7128960FB6F894DEBF0FBE03
:10202000CDBFDF91CF911F910F91FF90EF90DF9087
:10203000CF900C94E615FF2061F3842F8F712896C2
:102040000FB6F894DEBF0FBECDBFDF91CF911F91C9
:102050000F91FF90EF90DF90CF900C940716FF2028
:1020600091F0842F8F7128960FB6F894DEBF0FBEC3
:10207000CDBFDF91CF911F910F91FF90EF90DF9037
:10208000CF900C94D11528960FB6F894DEBF0FBEF2
:10209000CDBFDF91CF911F910F91FF90EF90DF9017
:1020A000CF900C94C715FF20A1F0222309F4B1CFE3
:1020B000862F28960FB6F894DEBF0FBECDBFDF91F6
:1020C000CF911F910F91FF90EF90DF90CF900C94E4
:1020D000960C222309F4B1CF862F28960FB6F894D8
:1020E000DEBF0FBECDBFDF91CF911F910F91FF904B
:1020F000EF90DF90CF900C945E0D4F70C8010E945E
:10210000DA1828960FB6F894DEBF0FBECDBFDF9168
:10211000CF911F910F91FF90EF90DF90CF900C9493
:10212000EE14F110C1C0942F9F70492F50E042303F
:10213000510509F440C0BCF44115510561F141302D
:10214000510509F0B1C028960FB6F894DEBF0FBE56
:10215000CDBFDF91CF911F910F91FF90EF90DF9056
:10216000CF900C94CC1F43305105A9F14430510558
:1021700009F09AC0862F28960FB6F894DEBF0FBEDE
:10218000CDBFDF91CF911F910F91FF90EF90DF9026
:10219000CF900C94202028960FB6F894DEBF0FBE87
:1021A000CDBFDF91CF911F910F91FF90EF90DF9006
:1021B000CF900C94B51F28960FB6F894DEBF0FBED3
:1021C000CDBFDF91CF911F910F91FF90EF90DF90E6
:1021D000CF900C94E81F28960FB6F894DEBF0FBE80
:1021E000CDBFDF91CF911F910F91FF90EF90DF90C6
:1021F000CF900C94FB1F942F9F70892F90E082301A
:102200009105A1F02CF4009779F1019739F04CC0B9
:102210008330910581F0049799F046C0FF2019F0B2
:1022200084E890E011C085E890E00EC0FF20D9F36B
:1022300086E890E009C0FF20B1F387E890E004C091
:10224000FF2089F388E890E028960FB6F894DEBF67
:102250000FBECDBFDF91CF911F910F91FF90EF90F7
:10226000DF90CF900C94780BFF20F1F09091D70184
:1022700094FB882780F921E0822780FB94F99093D2
:10228000D70112C04F70C80128960FB6F894DEBF70
:102290000FBECDBFDF91CF911F910F91FF90EF90B7
:1022A000DF90CF900C94760228960FB6F894DEBF9C
:1022B0000FBECDBFDF91CF911F910F91FF90EF9097
:1022C000DF90CF9008950E9477170E9449170E94CF
:1022D00093170E94811D0E94D51C80E090E00E940F
:1022E000780B80E090E00C948E0B0E9467170C94A2
:1022F00063110E949C16292F22952F7030E02C30FC
:1023000031054CF42A3031056CF422503109223069
:10231000310590F407C02C30310551F02F303105D4
:1023200039F00AC0803E10F0803F31F481E008951A
:1023300093FB882780F9089580E00895CF93DF9379
:1023400000D000D01F92CDB7DEB70F900F900F9046
:102350000F900F90DF91CF910895CF93DF9300D02E
:1023600000D000D0CDB7DEB726960FB6F894DEBF0A
:102370000FBECDBFDF91CF9108951F93CF93DF9311
:10238000C091730116E080917401C81799F0D0E0F4
:102390001C9FF0011D9FF00D1124EB58FE4F408152
:1023A000518162817381848195810E94AD11219652
:1023B000C770E9CFDF91CF911F9108954091A5019A
:1023C0005091A6016091A7017091A8018091A90187
:1023D0009091AA010C94AD11CF938091AA0182959E
:1023E0008F7009F05FC08091A701882309F45AC05B
:1023F00020917301A09174016091A5017091A601D3
:102400008091A8019091A90131E06F3F09F030E07F
:10241000B32FC6E02A1709F445C0009721F07F3F8B
:1024200021F44B2F03C041E001C040E030E040FD0B
:1024300035C0C29FF001C39FF00D1124EB58FE4F31
:10244000418174132BC04081641328C04281411123
:1024500025C0438154814817590710F44150510950
:10246000481B590B483C5105C8F48091AA018F7054
:1024700080618093AA0186E0829FF001839FF00D26
:102480001124E658FE4F80818F708061808385EA39
:1024900091E00E94BB0DCF910C94BD112F5F3F4F77
:1024A0002770B8CFCF910895CF92DF92EF92FF922D
:1024B0000F931F93CF93DF93CDB7DEB762970FB61D
:1024C000F894DEBF0FBECDBF8C0185E0F801DE01C0
:1024D0001D9601900D928A95E1F7D8014C911196C5
:1024E0005C91119712966C9112971396ED90FC9057
:1024F00014977091A501E091A6012091A801309157
:10250000A9012115310531F0EF3F31F481E07F3F22
:1025100019F403C081E001C080E0B82FB170CB2E68
:1025200080FD6CC1D090A701DD2009F4F5C0F091C9
:10253000AA01E216F30638F0C701821B930B883C10
:10254000910548F09BC0209530952E0D3F1D283CED
:10255000310508F093C08F2F807F09F052C0E5133A
:1025600014C0741312C0D62E61110FC0FF70F06139
:10257000F093AA010E94DE1185EA91E00E94BB0D52
:102580008091AA01F80185836CC1EF2831F05F3F8B
:1025900031F481E04F3F19F403C081E001C080E0D5
:1025A00080FD03C081E0862701C080E0F82FF17034
:1025B000FF2E80FF1CC0809173012091740136E0D2
:1025C000821709F428C190E0389FF001399FF00D7F
:1025D0001124EB58FE4F7181571306C070814713C9
:1025E00003C07281671303C001968770E9CFD62EAE
:1025F000662309F436C18091AA0181608093AA0103
:1026000053C0E51308C0741306C0611104C0D8019B
:102610001596FC93AEC04D875E878D859E856A8B2F
:102620000E9479116A89882329F1D62E662311F137
:102630002091AA01822F82958F7090E002970CF46E
:1026400060C08091A5019091A60198878F8319861B
:10265000FB86EA862C87CE01079651C0E51731F13B
:102660004D875E878D859E856A8B0E9479116A8968
:1026700081112EC0C8010E94BB0DA4C08F2F807F86
:1026800069F77E2DF98AE88A89890E949E1185EA78
:1026900091E00E94BB0DE5EAF1E086E0DF011D92CA
:1026A0008A95E9F70E94DE11D12CDBC07413D8CFD4
:1026B0006111D6CFD8011596FC93C8010E94BB0DBD
:1026C000E5EAF1E086E0DF011D928A95E9F7C9C0ED
:1026D000D62E662379F22091AA01822F82958F70DF
:1026E00090E0029774F08091A5019091A6019A83E1
:1026F00089831B82FD82EC822E83CE0101960E948B
:10270000BB0D86E0F801A5EAB1E001900D928A9533
:10271000E1F70E94EC116FC0E216F30628F0C70142
:10272000821B930B9C0104C0209530952E0D3F1DFC
:10273000283C310508F052C0D62E662309F49ACF02
:10274000E5132CC074132AC08091AA0180FD1DC01E
:10275000982F92959F70C9F0D80115968C93159774
:102760009F3039F09F5F9295907F8F70892B1596DF
:102770008C93C8010E94BB0D86E0F801A5EAB1E088
:1027800001900D928A95E1F736C086E0F801A5EA3E
:10279000B1E001900D928A95E1F763C04D875E87A5
:1027A0008D859E850E947911882379F086E0F80155
:1027B000A5EAB1E001900D928A95E1F70E94EC1133
:1027C0000E94DE11DD24D3944CC08091AA01816067
:1027D0008093AA01C8010E94BB0D43C07E2DF98AD7
:1027E000E88A89890E949E11E5EAF1E086E0DF012E
:1027F0001D928A95E9F70E94DE1133C0662309F421
:1028000039CF4D875E878D859E850E9479118823FB
:1028100009F430CFCBCF4D875E878D859E850E9492
:102820009C16292F22952F7030E0223031052CF490
:102830009F7041F0811106C00CC0243031052CF48A
:102840009F7049F4805E883020F0C8010E94BB0D63
:10285000CF2CDC2C06C0D80115969C91907F91F767
:10286000F8CF8D2D62960FB6F894DEBF0FBECDBFA8
:10287000DF91CF911F910F91FF90EF90DF90CF905C
:1028800008951F93CF93DF93CDB7DEB72C970FB684
:10289000F894DEBF0FBECDBF4F83588769877A8714
:1028A0008B879C87CE0107960E9454128823C1F023
:1028B0002F8138858A859B85892B31F03F3F11F028
:1028C00080E003C02F3FE1F781E0811147C04F81D5
:1028D000588569857A858B859C850E94AD113EC09F
:1028E00086E0FE013796DE01119601900D928A95E1
:1028F000E1F7FF81E8854A855B854115510531F097
:10290000EF3F31F481E0FF3F19F403C081E001C0E3
:1029100080E080FD23C02091740130E0C901019660
:10292000877099276091730170E086179707F1F11E
:10293000F983EA835D834C8396E0929FD001939F55
:10294000B00D1124AB58BE4FFE01319601900D928F
:102950009A95E1F7809374010E94BD1116E0809171
:10296000730190917401891779F1189FC0011124A6
:102970008B589E4F0E945412882331F1E0917301CD
:102980001E9FF0011124EB58FE4F4081518162815E
:102990007381848195810E94AD118091730190E0D3
:1029A00001968770992780937301D9CF0E94751182
:1029B0001092740110927301E5EAF1E086E0DF0104
:1029C0001D928A95E9F7CACF2C960FB6F894DEBF10
:1029D0000FBECDBFDF91CF911F910895EF92FF926F
:1029E0000F931F93CF93DF939C01009709F46FC05F
:1029F000F12CEE24E394E9012196F90184918437C6
:102A000040F4843008F054C0813081F0823021F1EC
:102A10005EC0853709F447C0B0F19CE7980F903746
:102A200008F055C08F770E945E0D44C089010E5F8B
:102A30001F4FFE01849190E2980F983050F48770F8
:102A4000FE2D01C0FF0F8A95EAF78F2F0E946A17AB
:102A500015C00E94960C12C089010E5F1F4FFE0127
:102A6000849190E2980F983058F48770FE2D01C041
:102A7000FF0F8A95EAF78F2F0E947017E8011AC09E
:102A80000E945E0DFBCF2E5F3F4FFE01C491CC2311
:102A900041F08FE99FE00197F1F700C00000C150BD
:102AA000F6CFE90107C0FE01F490E901229602C0C9
:102AB0000E94960C8F2D882341F0EFE9FFE03197BB
:102AC000F1F700C000008150F6CF9E0194CFDF9156
:102AD000CF911F910F91FF90EF900895089560930B
:102AE000AF017093B0018093B1019093B2010C9447
:102AF00063110F931F930091AF011091B0012091CA
:102B0000B1013091B201062B172B282B392B0093E2
:102B1000AF011093B0012093B1013093B2011F9126
:102B20000F910C9463110F931F930091AF011091BB
:102B3000B0012091B1013091B2010623172328235F
:102B400039230093AF011093B0012093B10130936A
:102B5000B2011F910F910C9463110F931F93009179
:102B6000AF011091B0012091B1013091B20106275F
:102B70001727282739270093AF011093B00120931E
:102B8000B1013093B2011F910F910C946311109217
:102B9000AB011092AC011092AD011092AE010C94F9
:102BA000631141E050E060E070E004C0440F551F45
:102BB000661F771F8A95D2F74093AB015093AC0103
:102BC0006093AD017093AE010C94631141E050E04D
:102BD00060E070E004C0440F551F661F771F8A95A0
:102BE000D2F78091AB019091AC01A091AD01B09171
:102BF000AE01842B952BA62BB72B8093AB01909322
:102C0000AC01A093AD01B093AE010C94631141E00F
:102C100050E060E070E004C0440F551F661F771F4E
:102C20008A95D2F740955095609570958091AB014B
:102C30009091AC01A091AD01B091AE018423952398
:102C4000A623B7238093AB019093AC01A093AD0171
:102C5000B093AE010C94631141E050E060E070E08D
:102C600004C0440F551F661F771F8A95D2F78091C5
:102C7000AB019091AC01A091AD01B091AE01842760
:102C80009527A627B7278093AB019093AC01A0931B
:102C9000AD01B093AE010C9463110F931F9300919B
:102CA000AB011091AC012091AD013091AE01062B2A
:102CB000172B282B392B0093AB011093AC012093D9
:102CC000AD013093AE011F910F910C9463110F93DE
:102CD0001F930091AB011091AC012091AD01309197
:102CE000AE0106231723282339230093AB01109349
:102CF000AC012093AD013093AE011F910F910C9464
:102D000063110F931F930091AB011091AC012091BF
:102D1000AD013091AE0106271727282739270093E8
:102D2000AB011093AC012093AD013093AE011F9124
:102D30000F910C9463110895CF92DF92EF92FF925E
:102D40000F931F93CF93DF93EC01C090AF01D0900E
:102D5000B001E090B101F090B2018091AB0190918F
:102D6000AC01A091AD01B091AE01C82AD92AEA2ADE
:102D7000FB2A0FE110E0B701A601002E04C07695F2
:102D80006795579547950A94D2F740FF07C0BE0153
:102D9000802F0E9467188130910539F40150110984
:102DA00050F7BE0180E00E946718DF91CF911F911C
:102DB0000F91FF90EF90DF90CF90089590910E01CA
:102DC0009923B9F0982F9695969596959F3088F50A
:102DD000E0910F01F0911001E90FF11D877021E0E2
:102DE00030E001C0220F8A95EAF78181822B81832E
:102DF000089540910F015091100120E030E09FEFC5
:102E0000FA01E20FF31F6281681799F09F3F19F4EE
:102E1000611101C0922F2F5F3F4F2E30310581F796
:102E20009F3F39F0FA01E90FF11D97FDFA95828372
:102E30000895089590910E019923C1F0982F9695C9
:102E4000969596959F3020F5E0910F01F091100135
:102E5000E90FF11D877021E030E001C0220F8A9553
:102E6000EAF72095818128232183089540910F015D
:102E70005091100120E030E0FA01E20FF31F92813F
:102E8000981301C012822F5F3F4F2E303105A1F7FA
:102E9000089581E090E0E0910F01F0911001E80FBA
:102EA000F91F1082019680319105A9F7089580914C
:102EB000C50108959091C501982B9093C50108957F
:102EC00080959091C50198239093C5010895109223
:102ED000C50108959091C401982B9093C401089561
:102EE00080959091C40198239093C4010895109205
:102EF000C40108958093B30108951092B301089519
:102F000040910F015091100120E030E080E0FA0183
:102F1000E20FF31F918191118F5F2F5F3F4F2F3091
:102F20003105A9F70895E0910F01F091100180910A
:102F3000C5018083E0910F01F09110018081909193
:102F4000C401892B80839091B301992361F0E091B2
:102F50000F01F09110018081892B80830E948017DE
:102F600081111092B30180910F01909110010C9486
:102F7000620B8D3B60F4883A00F5853AA8F4843002
:102F800088F4813009F05BC081E090E00895803ED4
:102F900008F455C0883E30F0803F08F450C090E0FF
:102FA0009065089590E00895853A09F44BC0863AFB
:102FB00009F04BC082E890E40895883A09F448C0CB
:102FC000893A09F448C08A3A09F448C08B3A09F4AE
:102FD00048C08C3A09F448C08B3B09F448C08C3B8C
:102FE00009F448C08D3A09F448C0803B09F448C050
:102FF0008E3A09F448C08F3A09F448C0813B09F47D
:1030000048C0823B09F448C0833B09F448C0843B74
:1030100009F448C0853B09F448C0863B09F448C020
:10302000873B09F448C0883B09F448C0893B09F450
:1030300048C08A3B09F048C08AE296E4089580E0DF
:1030400090E0089581E890E4089583E890E408957D
:1030500082EE94E4089589EE94E408958AEE94E46F
:10306000089585EB94E4089586EB94E4089583EB4A
:1030700094E4089584EB94E4089587EB94E4089530
:103080008CEC94E408958DEC94E4089583E895E441
:1030900008958AE895E4089582E995E4089584E91D
:1030A00095E4089581E296E4089583E296E4089514
:1030B00084E296E4089585E296E4089586E296E433
:1030C000089587E296E4089580E094E408950E94CC
:1030D0009D02803EA8F4803C00F5813309F45CC079
:1030E00038F4893209F452C08A3209F45BC05FC0F7
:1030F0008933B1F08238A1F0853309F441C057C05B
:10310000833E41F128F4803E99F0823EB9F04FC0F1
:10311000863E31F1873E71F14AC00E94AC020895AB
:103120009091D70190FD02C091FF41C080EE3FC059
:103130008091D70180FFFACF89E339C08091D70110
:1031400082FF0CC08091D70184FF02C080E02FC0B5
:1031500083EE2DC08091D70182FFF4CF82EE27C08D
:103160008091D70183FF0AC08091D70184FDEECF03
:1031700087EE1DC08091D70183FFF6CF86EE17C082
:103180008091D70185FF06C089E211C08091D701E7
:1031900085FFFACF85E30BC08091D70186FF06C07B
:1031A0008AE205C08091D70186FFFACF81E30E94B1
:1031B000B917089580E090E008958091DC01843093
:1031C00009F11092C70120E488E190E00FB6F8946D
:1031D000A895809360000FBE2093600083B7817F25
:1031E000846083BF83B7816083BF7894889583B7F9
:1031F0008E7F83BF88E10FB6F894809360001092B1
:1032000060000FBE089508950895CF930E9403199A
:103210000E94EE020E940419C0E08C2F0E94D80385
:10322000892B29F4CF5FC530C1F780E001C081E070
:10323000CF9108950E9475110C94A41F1F920F92B4
:103240000FB60F9211248F939F93AF93BF938091EA
:10325000C701811113C08091C8019091C901A0914B
:10326000CA01B091CB014196A11DB11D8093C80147
:103270009093C901A093CA01B093CB01BF91AF91C4
:103280009F918F910F900FBE0F901F90189582E025
:1032900084BD93E095BD9AEF97BD80936E0008952D
:1032A0002FB7F8948091C8019091C901A091CA01EB
:1032B000B091CB012FBF0895CF92DF92EF92FF9292
:1032C0000F931F932FB7F8944091C8015091C901F3
:1032D0006091CA017091CB012FBF6A017B01EE247E
:1032E000FF248C0120E030E0C016D106E206F30690
:1032F00010F441505109481B590BCA011F910F91FD
:10330000FF90EF90DF90CF9008951F920F920FB62D
:103310000F9211248F939F93AF93BF938091C80115
:103320009091C901A091CA01B091CB010196A11D54
:10333000B11D8093C8019093C901A093CA01B093B5
:10334000CB01BF91AF919F918F910F900FBE0F90C6
:103350001F9018950E947908F8942FEF87EA91E65C
:10336000215080409040E1F700C0000087E090EBE2
:10337000DC018093E6019093E701A093E801B0930C
:10338000E9012CE088E190E00FB6F894A8958093CD
:1033900060000FBE20936000FFCFCF92DF92EF92CC
:1033A000FF920F931F93CF93DF93C82ED12C01E090
:1033B00010E08D2D0E94D8037C01C0E0D0E0980180
:1033C0000C2E02C0220F331F0A94E2F72E213F2158
:1033D000232B29F42196CE30D10589F709C06C2F13
:1033E0007D2D80E00E949D02C812F4CF81E005C0CF
:1033F000D39485E0D812DDCF80E0DF91CF911F918B
:103400000F91FF90EF90DF90CF900895CF93C82F4A
:103410008CE20E94CD19882321F08C2FCF910C943F
:10342000CD1980E0CF910895CF930E944B1B81115D
:1034300002C00E942C1BC5E6C15049F00E94EE025A
:103440008FE39CE90197F1F700C00000F5CF89E216
:103450000E94061A8111FEC08AE20E94061A81119A
:103460000E942C1B85E00E94061A81110E94AA1955
:103470000E94561B8093C60187E00E94061A88238B
:1034800099F18BE10E94061A882351F09091C601B0
:1034900091FB882780F921E0822780FB91F922C0E7
:1034A0008EE00E94061A882351F09091C60192FB8B
:1034B000882780F921E0822780FB92F913C080E100
:1034C0000E94061A9091C601882341F093FB882739
:1034D00080F921E0822780FB93F904C0892F809531
:1034E00080FB90F99093C6010E945A1B8093D701EC
:1034F00080EE0E94061A882341F08091D701982F10
:10350000909590FB80F98093D70189E30E94061A79
:10351000882359F09091D70191FB882780F921E009
:10352000822780FB91F99093D70182EE0E94061AC0
:10353000882359F09091D70192FB882780F921E0E8
:10354000822780FB92F99093D70186EE0E94061A9B
:10355000882359F09091D70193FB882780F921E0C7
:10356000822780FB93F99093D70183EE0E94061A7D
:10357000882359F09091D70194FB882780F921E0A6
:10358000822780FB94F99093D70185E30E94061A65
:10359000882359F09091D70195FB882780F921E085
:1035A000822780FB95F99093D70181E30E94061A48
:1035B000882359F09091D70196FB882780F921E064
:1035C000822780FB96F99093D70181E10E94061A29
:1035D000882359F09091D70197FB882780F921E043
:1035E000822780FB97F99093D7018091D70187FBC1
:1035F000882780F980930E0187E20E94061AC82F5F
:103600008EE10E94061A8111C2608FE10E94061AA3
:103610008111C46080E20E94061A8111C86081E2B3
:103620000E94061A8111C06182E20E94061A81116D
:10363000C06283E20E94061A8111C06484E20E9483
:10364000061A8111C0686C2F70E080E090E0CF9185
:103650000C946F15CF9108956DEE7EEF80E090E0B1
:103660000E94A82160E082E090E00E949A2160E040
:1036700083E090E00E949A2160E084E090E00E9464
:103680009A2160E085E090E00E949A2160E086E067
:1036900090E00C949A2180E090E00E94942121E037
:1036A0008D3E9E4F09F020E0822F089582E090E049
:1036B0000C948C2184E090E00C948C2186E090E0C6
:1036C0000C948C21682F86E090E00C949A218091D4
:1036D000CE0180FF0BC06091140185E0689FB001AE
:1036E000112475956795759567952AC081FF09C066
:1036F0006091140185E0689FB0011124759567956C
:103700001FC082FF07C06091140185E0689FB0016F
:10371000112416C04091CF014423C9F060911301D8
:10372000461788F72091140185E0289F9001112405
:10373000429FC001439F900D112470E00E945E21C2
:103740006038710540F46115710539F002C065E01B
:1037500070E0862F08958FE7089581E008958091A5
:10376000CE0180FF08C06091120170E075956795E9
:103770007595679521C081FF06C06091120170E0C8
:103780007595679519C082FF04C06091120170E0C1
:1037900010C08091CF018823C1F06091110186177C
:1037A000A0F790911201989FC001112470E00E942F
:1037B0005E216038710528F46115710521F0862FAE
:1037C00008958FE7089581E0089561E070E0F4CFF7
:1037D000803F21F40E94671B819504C0813F29F43A
:1037E0000E94671B8093D2010895823F21F40E94BA
:1037F000671B819504C0833F29F40E94671B809357
:10380000D1010895893F19F40E94AF1B05C08A3F7A
:1038100031F40E94AF1B81958093D30108958B3FB3
:1038200021F40E94AF1B819504C08C3F29F40E94B3
:10383000AF1B8093D4010895843F21F48091D0017F
:10384000816017C0853F21F48091D001826011C052
:10385000863F21F48091D00184600BC0873F21F422
:103860008091D001886005C0883F31F48091D001FB
:1038700080618093D00108958D3F21F48091CE0125
:1038800081600BC08E3F21F48091CE01826005C023
:103890008F3F29F48091CE0184608093CE010895FA
:1038A000803F39F48091D20187FF6CC01092D20121
:1038B00069C0813F29F48091D2011816BCF362C01F
:1038C0009091D101823F29F497FF5CC01092D10101
:1038D00059C0833F19F41916CCF354C0893F41F401
:1038E0008091D30118160CF04DC01092D3014AC03C
:1038F0008A3F29F48091D30187FF44C0F6CF8B3FE4
:1039000039F48091D40187FF3DC01092D4013AC0B0
:103910008C3F29F48091D4011816BCF333C0843F46
:1039200021F48091D0018E7F17C0853F21F48091D2
:10393000D0018D7F11C0863F21F48091D0018B7F13
:103940000BC0873F21F48091D001877F05C0883F5D
:1039500031F48091D0018F7E8093D00113C08D3FD0
:1039600021F48091CE018E7F0BC08E3F21F4809197
:10397000CE018D7F05C08F3F29F48091CE018B7FD2
:103980008093CE018091D10181110EC08091D2012E
:1039900081110AC08091D301811106C08091D401A8
:1039A000811102C01092CF01089580ED91E00E9434
:1039B0006D0B0E9450199093CD018093CC01089516
:1039C0001F93CF93DF938091CC019091CD010E9402
:1039D0005C194091CF01442321F02091150130E082
:1039E00006C0209116015AE0259F900111248217EC
:1039F000930708F482C08091D1011091D201D09137
:103A0000D301C091D401811107C0111105C0D1119A
:103A100003C0CC2309F471C04F3F19F04F5F4093AE
:103A2000CF01181624F40E94671B8093D101809166
:103A3000D10187FF05C00E94671B81958093D1014A
:103A4000111624F40E94671B8093D2018091D20149
:103A500087FF05C00E94671B81958093D20160910A
:103A6000D101662339F11091D201112319F1772781
:103A700067FD7095872F972F0E946F2023E333E314
:103A800043E35FE30E94D3200E943C206093D10176
:103A9000612F772767FD7095872F972F0E946F20E2
:103AA00023E333E343E35FE30E94D3200E943C20FF
:103AB0006093D2011D1624F40E94AF1B8093D301A2
:103AC0008091D30187FF05C00E94AF1B8195809331
:103AD000D3011C1624F40E94AF1B8093D401809163
:103AE000D40187FF05C00E94AF1B81958093D4014C
:103AF000DF91CF911F910C94D51CDF91CF911F9135
:103B00000895E0EDF1E085E0DF011D928A95E9F787
:103B10001092CF011092CE010895833081F128F4E4
:103B2000813059F08230D1F00895853009F449C0D0
:103B3000B8F1863009F456C0089520911601862FF9
:103B400090E0820F911D8F3F910520F4620F6093EA
:103B5000160108958FEF80931601089520911501A5
:103B6000862F90E0820F911D8F3F910520F4620F08
:103B70006093150108958FEF8093150108952091AA
:103B80001401862F90E0820F911D8F3F910520F444
:103B9000620F6093140108958FEF809314010895CC
:103BA00020911301862F90E0820F911D8F3F910588
:103BB00020F4620F6093130108958FEF8093130137
:103BC000089520911201862F90E0820F911D8F3F62
:103BD000910520F4620F6093120108958FEF809396
:103BE0001201089520911101862F90E0820F911DFE
:103BF0008F3F910520F4620F6093110108958FEFBC
:103C0000809311010895833011F128F4813049F037
:103C1000823091F00895853081F120F18630C1F134
:103C2000089580911601681720F4861B8093160171
:103C3000089510921601089580911501681720F4D7
:103C4000861B8093150108951092150108958091A7
:103C50001401681720F4861B8093140108951092B4
:103C60001401089580911301681720F4861B809336
:103C7000130108951092130108958091120168179D
:103C800020F4861B8093120108951092120108956A
:103C900080911101681720F4861B8093110108950B
:103CA0001092110108958B3109F46DC000F58E302A
:103CB00009F473C068F4873009F458C018F48630EA
:103CC000E9F133C0883099F18B3009F4A2C02DC0DE
:103CD000813109F47DC020F4803109F468C025C029
:103CE000863109F496C0893109F493C01EC085332A
:103CF00009F477C060F4873209F473C020F48E3180
:103D000008F074C012C0893209F46BC00EC083344D
:103D100038F48A3308F06CC0883309F47AC005C0DF
:103D2000833409F45EC0883499F080E008950E94DD
:103D3000561B0E945A1B0E945E1B6BC08091C601DD
:103D4000817F8E7F8093C60181E08093D5010895A5
:103D50000E9475112FEF83ED90E321508040904039
:103D6000E1F700C000000E94AA1953C09091C6015B
:103D7000892F817090FF03C0917F9E7F26C0916044
:103D80009093C60146C09091C60191FB882780F9A7
:103D900021E0822780FB91F913C09091C60192FB2C
:103DA000882780F921E0822780FB92F909C0909151
:103DB000C60193FB882780F921E0822780FB93F9D5
:103DC0009093C601882329F191609093C6010895CC
:103DD0000E94751180910E0191E0892780930E0158
:103DE00018C061E070E080E090E00FC023EE01C0F9
:103DF00027EC280F61E070E080E090E004C0660FDF
:103E0000771F881F991F2A95D2F70E946F150E946D
:103E1000751181E0089580E0089580E00895CF93C2
:103E2000C82F8091D501813069F018F08230B1F14E
:103E300081C0A0910F01B09110018C91823209F0E4
:103E40007BC007C0A0910F01B09110018C9182320C
:103E500049F48C2F0E940B1F81111DC08C2F0E94D2
:103E6000531E1AC08C2F0E940D1F811114C0C43123
:103E700079F048F4CB3079F0C03109F061C082E0CC
:103E80008093D50108C0C93219F0C83321F058C059
:103E90001092D50155C081E0817054C0C93291F1B2
:103EA00020F5C43179F1B0F4C73009F047C08EE194
:103EB0008093160182E3809315018AE080931401B8
:103EC00084E18093130188E08093120188E280935B
:103ED000110134C0CE51C63088F5EC2FF0E0E55D1D
:103EE000FE4F80818093D60129C0CE34E9F020F4C2
:103EF000CB3421F56AE013C0C13579F0C235F1F455
:103F000061E00DC08091D601882319F01092D6018E
:103F100015C081E08093D50115C061E006C0809195
:103F2000D6010E948D1D0AC06AE08091D6010E94D0
:103F3000031E04C01092D50180E004C081E002C0DD
:103F400080E0AACFCF9108950E944B1B811102C03F
:103F50000E942C1B0E945E1B8093E50180FF02C023
:103F6000869501C080E00C9414048091E501982F9F
:103F70009695292F30E0233031054CF49F5F990F3F
:103F80008170892B81608093E5010E94621B809182
:103F9000E50186950C9414048091E501982F96957F
:103FA00091F09158990F8170892B8093E5018E7F54
:103FB00091E009F490E08091E50190FB80F9809315
:103FC000E5010E94621B8091E50186950C94140422
:103FD0008091E501982F909590FB80F98093E50101
:103FE0000E94621B8091E50180FF02C0869501C09E
:103FF00080E00C9414043091E501232F26952F5F67
:104000002F77822F90E0317004972CF4220F232B0E
:104010002093E50102C03093E5018091E5018E7F98
:1040200091E009F490E08091E50190FB80F98093A4
:10403000E5010E94621B8091E50186950C941404B1
:104040002091E501922F96959827990F822F8170E4
:10405000892B8093E5018E7F91E009F490E08091B7
:10406000E50190FB80F98093E5010E94621B80913D
:10407000E50186950C94140404D06894B1118DC0A8
:10408000089570D088F09F5790F0B92F9927B751B5
:10409000A0F0D1F0660F771F881F991F1AF0BA950C
:1040A000C9F712C0B13081F077D0B1E0089574C083
:1040B000672F782F8827B85F39F0B93FCCF3869502
:1040C00077956795B395D9F73EF49095809570955F
:1040D00061957F4F8F4F9F4F0895E89409C097FBDC
:1040E0003EF490958095709561957F4F8F4F9F4FCF
:1040F0009923A9F0F92F96E9BB279395F695879513
:1041000077956795B795F111F8CFFAF4BB0F11F4D5
:1041100060FF1BC06F5F7F4F8F4F9F4F16C088237C
:1041200011F096E911C0772321F09EE8872F762FB2
:1041300005C0662371F096E8862F70E060E02AF0F3
:104140009A95660F771F881FDAF7880F96958795DF
:1041500097F9089557FD9058440F551F59F05F3F48
:1041600071F04795880F97FB991F61F09F3F79F099
:1041700087950895121613061406551FF2CF46951B
:10418000F1DF08C0161617061806991FF1CF86959D
:104190007105610508940895E894BB276627772781
:1041A000CB0197F908950BD078C069D028F06ED074
:1041B00018F0952309F05AC05FC01124EECFCADF72
:1041C000A0F3959FD1F3950F50E0551F629FF0012A
:1041D000729FBB27F00DB11D639FAA27F00DB11D83
:1041E000AA1F649F6627B00DA11D661F829F22270C
:1041F000B00DA11D621F739FB00DA11D621F839F93
:10420000A00D611D221F749F3327A00D611D231F68
:10421000849F600D211D822F762F6A2F11249F57B6
:1042200050408AF0E1F088234AF0EE0FFF1FBB1FD9
:10423000661F771F881F91505040A9F79E3F510578
:1042400070F014C0AACF5F3FECF3983EDCF3869584
:1042500077956795B795F795E7959F5FC1F7FE2B23
:10426000880F911D9695879597F9089597F99F67FF
:1042700080E870E060E008959FEF80EC08950024EE
:104280000A941616170618060906089500240A94BB
:1042900012161306140605060895092E0394000C41
:1042A00011F4882352F0BB0F40F4BF2B11F460FFD0
:1042B00004C06F5F7F4F8F4F9F4F089597FB072E6E
:1042C00016F4009407D077FD09D00E94782107FCEE
:1042D00005D03EF4909581959F4F08957095619516
:1042E0007F4F0895EE0FFF1F0590F491E02D099484
:1042F000AA1BBB1B51E107C0AA1FBB1FA617B7070C
:1043000010F0A61BB70B881F991F5A95A9F7809527
:104310009095BC01CD010895F999FECF92BD81BD64
:10432000F89A992780B50895A8E1B0E042E050E0FE
:104330000C94AF21262FF999FECF1FBA92BD81BDF3
:1043400020BD0FB6F894FA9AF99A0FBE0196089517
:104350000E949A21272F0C949B21DC01CB01FC01A8
:10436000F999FECF06C0F2BDE1BDF89A319600B4CE
:0E4370000D9241505040B8F70895F894FFCFD9
:10437E000501FF79040605E304AF047C040101B4D2
:10438E00012808140A321E3F4D36392104D4039EEB
:10439E00036503F80211032A034303010203040514
:0643AE00060708090000EB
:00000001FF
